{
  "contractName": "dappTest",
  "abi": [
    {
      "inputs": [],
      "stateMutability": "nonpayable",
      "type": "constructor"
    },
    {
      "anonymous": false,
      "inputs": [
        {
          "indexed": true,
          "internalType": "address",
          "name": "owner",
          "type": "address"
        },
        {
          "indexed": true,
          "internalType": "address",
          "name": "spender",
          "type": "address"
        },
        {
          "indexed": false,
          "internalType": "uint256",
          "name": "value",
          "type": "uint256"
        }
      ],
      "name": "Approval",
      "type": "event"
    },
    {
      "anonymous": false,
      "inputs": [
        {
          "indexed": true,
          "internalType": "address",
          "name": "from",
          "type": "address"
        },
        {
          "indexed": true,
          "internalType": "address",
          "name": "to",
          "type": "address"
        },
        {
          "indexed": false,
          "internalType": "uint256",
          "name": "value",
          "type": "uint256"
        }
      ],
      "name": "Transfer",
      "type": "event"
    },
    {
      "inputs": [
        {
          "internalType": "address",
          "name": "owner",
          "type": "address"
        },
        {
          "internalType": "address",
          "name": "spender",
          "type": "address"
        }
      ],
      "name": "allowance",
      "outputs": [
        {
          "internalType": "uint256",
          "name": "",
          "type": "uint256"
        }
      ],
      "stateMutability": "view",
      "type": "function",
      "constant": true
    },
    {
      "inputs": [
        {
          "internalType": "address",
          "name": "spender",
          "type": "address"
        },
        {
          "internalType": "uint256",
          "name": "amount",
          "type": "uint256"
        }
      ],
      "name": "approve",
      "outputs": [
        {
          "internalType": "bool",
          "name": "",
          "type": "bool"
        }
      ],
      "stateMutability": "nonpayable",
      "type": "function"
    },
    {
      "inputs": [
        {
          "internalType": "address",
          "name": "account",
          "type": "address"
        }
      ],
      "name": "balanceOf",
      "outputs": [
        {
          "internalType": "uint256",
          "name": "",
          "type": "uint256"
        }
      ],
      "stateMutability": "view",
      "type": "function",
      "constant": true
    },
    {
      "inputs": [
        {
          "internalType": "address",
          "name": "spender",
          "type": "address"
        },
        {
          "internalType": "uint256",
          "name": "subtractedValue",
          "type": "uint256"
        }
      ],
      "name": "decreaseAllowance",
      "outputs": [
        {
          "internalType": "bool",
          "name": "",
          "type": "bool"
        }
      ],
      "stateMutability": "nonpayable",
      "type": "function"
    },
    {
      "inputs": [
        {
          "internalType": "address",
          "name": "spender",
          "type": "address"
        },
        {
          "internalType": "uint256",
          "name": "addedValue",
          "type": "uint256"
        }
      ],
      "name": "increaseAllowance",
      "outputs": [
        {
          "internalType": "bool",
          "name": "",
          "type": "bool"
        }
      ],
      "stateMutability": "nonpayable",
      "type": "function"
    },
    {
      "inputs": [],
      "name": "name",
      "outputs": [
        {
          "internalType": "string",
          "name": "",
          "type": "string"
        }
      ],
      "stateMutability": "view",
      "type": "function",
      "constant": true
    },
    {
      "inputs": [],
      "name": "symbol",
      "outputs": [
        {
          "internalType": "string",
          "name": "",
          "type": "string"
        }
      ],
      "stateMutability": "view",
      "type": "function",
      "constant": true
    },
    {
      "inputs": [],
      "name": "totalSupply",
      "outputs": [
        {
          "internalType": "uint256",
          "name": "",
          "type": "uint256"
        }
      ],
      "stateMutability": "view",
      "type": "function",
      "constant": true
    },
    {
      "inputs": [
        {
          "internalType": "address",
          "name": "recipient",
          "type": "address"
        },
        {
          "internalType": "uint256",
          "name": "amount",
          "type": "uint256"
        }
      ],
      "name": "transfer",
      "outputs": [
        {
          "internalType": "bool",
          "name": "",
          "type": "bool"
        }
      ],
      "stateMutability": "nonpayable",
      "type": "function"
    },
    {
      "inputs": [
        {
          "internalType": "address",
          "name": "sender",
          "type": "address"
        },
        {
          "internalType": "address",
          "name": "recipient",
          "type": "address"
        },
        {
          "internalType": "uint256",
          "name": "amount",
          "type": "uint256"
        }
      ],
      "name": "transferFrom",
      "outputs": [
        {
          "internalType": "bool",
          "name": "",
          "type": "bool"
        }
      ],
      "stateMutability": "nonpayable",
      "type": "function"
    },
    {
      "inputs": [],
      "name": "decimals",
      "outputs": [
        {
          "internalType": "uint8",
          "name": "",
          "type": "uint8"
        }
      ],
      "stateMutability": "view",
      "type": "function",
      "constant": true
    },
    {
      "inputs": [],
      "name": "get",
      "outputs": [
        {
          "internalType": "uint256",
          "name": "",
          "type": "uint256"
        }
      ],
      "stateMutability": "view",
      "type": "function",
      "constant": true
    },
    {
      "inputs": [
        {
          "internalType": "uint256",
          "name": "y",
          "type": "uint256"
        }
      ],
      "name": "set",
      "outputs": [],
      "stateMutability": "nonpayable",
      "type": "function"
    }
  ],
  "bytecode": "0x60806040523480156200001157600080fd5b506040518060400160405280600d81526020017f6461707054657374546f6b656e000000000000000000000000000000000000008152506040518060400160405280600481526020017f444154540000000000000000000000000000000000000000000000000000000081525081600390805190602001906200009692919062000250565b508060049080519060200190620000af92919062000250565b505050620000c73362989680620000cd60201b60201c565b620004ac565b600073ffffffffffffffffffffffffffffffffffffffff168273ffffffffffffffffffffffffffffffffffffffff16141562000140576040517f08c379a0000000000000000000000000000000000000000000000000000000008152600401620001379062000338565b60405180910390fd5b62000154600083836200024660201b60201c565b806002600082825462000168919062000388565b92505081905550806000808473ffffffffffffffffffffffffffffffffffffffff1673ffffffffffffffffffffffffffffffffffffffff1681526020019081526020016000206000828254620001bf919062000388565b925050819055508173ffffffffffffffffffffffffffffffffffffffff16600073ffffffffffffffffffffffffffffffffffffffff167fddf252ad1be2c89b69c2b068fc378daa952ba7f163c4a11628f55a4df523b3ef836040516200022691906200035a565b60405180910390a362000242600083836200024b60201b60201c565b5050565b505050565b505050565b8280546200025e90620003ef565b90600052602060002090601f016020900481019282620002825760008555620002ce565b82601f106200029d57805160ff1916838001178555620002ce565b82800160010185558215620002ce579182015b82811115620002cd578251825591602001919060010190620002b0565b5b509050620002dd9190620002e1565b5090565b5b80821115620002fc576000816000905550600101620002e2565b5090565b60006200030f601f8362000377565b91506200031c8262000483565b602082019050919050565b6200033281620003e5565b82525050565b60006020820190508181036000830152620003538162000300565b9050919050565b600060208201905062000371600083018462000327565b92915050565b600082825260208201905092915050565b60006200039582620003e5565b9150620003a283620003e5565b9250827fffffffffffffffffffffffffffffffffffffffffffffffffffffffffffffffff03821115620003da57620003d962000425565b5b828201905092915050565b6000819050919050565b600060028204905060018216806200040857607f821691505b602082108114156200041f576200041e62000454565b5b50919050565b7f4e487b7100000000000000000000000000000000000000000000000000000000600052601160045260246000fd5b7f4e487b7100000000000000000000000000000000000000000000000000000000600052602260045260246000fd5b7f45524332303a206d696e7420746f20746865207a65726f206164647265737300600082015250565b61142e80620004bc6000396000f3fe608060405234801561001057600080fd5b50600436106100cf5760003560e01c806360fe47b11161008c57806395d89b411161006657806395d89b4114610228578063a457c2d714610246578063a9059cbb14610276578063dd62ed3e146102a6576100cf565b806360fe47b1146101be5780636d4ce63c146101da57806370a08231146101f8576100cf565b806306fdde03146100d4578063095ea7b3146100f257806318160ddd1461012257806323b872dd14610140578063313ce56714610170578063395093511461018e575b600080fd5b6100dc6102d6565b6040516100e99190610ece565b60405180910390f35b61010c60048036038101906101079190610cf3565b610368565b6040516101199190610eb3565b60405180910390f35b61012a610386565b6040516101379190610fd0565b60405180910390f35b61015a60048036038101906101559190610ca4565b610390565b6040516101679190610eb3565b60405180910390f35b610178610488565b6040516101859190610feb565b60405180910390f35b6101a860048036038101906101a39190610cf3565b61048d565b6040516101b59190610eb3565b60405180910390f35b6101d860048036038101906101d39190610d2f565b610539565b005b6101e2610543565b6040516101ef9190610fd0565b60405180910390f35b610212600480360381019061020d9190610c3f565b61054d565b60405161021f9190610fd0565b60405180910390f35b610230610595565b60405161023d9190610ece565b60405180910390f35b610260600480360381019061025b9190610cf3565b610627565b60405161026d9190610eb3565b60405180910390f35b610290600480360381019061028b9190610cf3565b610712565b60405161029d9190610eb3565b60405180910390f35b6102c060048036038101906102bb9190610c68565b610730565b6040516102cd9190610fd0565b60405180910390f35b6060600380546102e590611100565b80601f016020809104026020016040519081016040528092919081815260200182805461031190611100565b801561035e5780601f106103335761010080835404028352916020019161035e565b820191906000526020600020905b81548152906001019060200180831161034157829003601f168201915b5050505050905090565b600061037c6103756107b7565b84846107bf565b6001905092915050565b6000600254905090565b600061039d84848461098a565b6000600160008673ffffffffffffffffffffffffffffffffffffffff1673ffffffffffffffffffffffffffffffffffffffff16815260200190815260200160002060006103e86107b7565b73ffffffffffffffffffffffffffffffffffffffff1673ffffffffffffffffffffffffffffffffffffffff16815260200190815260200160002054905082811015610468576040517f08c379a000000000000000000000000000000000000000000000000000000000815260040161045f90610f50565b60405180910390fd5b61047c856104746107b7565b8584036107bf565b60019150509392505050565b600090565b600061052f61049a6107b7565b8484600160006104a86107b7565b73ffffffffffffffffffffffffffffffffffffffff1673ffffffffffffffffffffffffffffffffffffffff16815260200190815260200160002060008873ffffffffffffffffffffffffffffffffffffffff1673ffffffffffffffffffffffffffffffffffffffff1681526020019081526020016000205461052a9190611022565b6107bf565b6001905092915050565b8060058190555050565b6000600554905090565b60008060008373ffffffffffffffffffffffffffffffffffffffff1673ffffffffffffffffffffffffffffffffffffffff168152602001908152602001600020549050919050565b6060600480546105a490611100565b80601f01602080910402602001604051908101604052809291908181526020018280546105d090611100565b801561061d5780601f106105f25761010080835404028352916020019161061d565b820191906000526020600020905b81548152906001019060200180831161060057829003601f168201915b5050505050905090565b600080600160006106366107b7565b73ffffffffffffffffffffffffffffffffffffffff1673ffffffffffffffffffffffffffffffffffffffff16815260200190815260200160002060008573ffffffffffffffffffffffffffffffffffffffff1673ffffffffffffffffffffffffffffffffffffffff168152602001908152602001600020549050828110156106f3576040517f08c379a00000000000000000000000000000000000000000000000000000000081526004016106ea90610fb0565b60405180910390fd5b6107076106fe6107b7565b858584036107bf565b600191505092915050565b600061072661071f6107b7565b848461098a565b6001905092915050565b6000600160008473ffffffffffffffffffffffffffffffffffffffff1673ffffffffffffffffffffffffffffffffffffffff16815260200190815260200160002060008373ffffffffffffffffffffffffffffffffffffffff1673ffffffffffffffffffffffffffffffffffffffff16815260200190815260200160002054905092915050565b600033905090565b600073ffffffffffffffffffffffffffffffffffffffff168373ffffffffffffffffffffffffffffffffffffffff16141561082f576040517f08c379a000000000000000000000000000000000000000000000000000000000815260040161082690610f90565b60405180910390fd5b600073ffffffffffffffffffffffffffffffffffffffff168273ffffffffffffffffffffffffffffffffffffffff16141561089f576040517f08c379a000000000000000000000000000000000000000000000000000000000815260040161089690610f10565b60405180910390fd5b80600160008573ffffffffffffffffffffffffffffffffffffffff1673ffffffffffffffffffffffffffffffffffffffff16815260200190815260200160002060008473ffffffffffffffffffffffffffffffffffffffff1673ffffffffffffffffffffffffffffffffffffffff168152602001908152602001600020819055508173ffffffffffffffffffffffffffffffffffffffff168373ffffffffffffffffffffffffffffffffffffffff167f8c5be1e5ebec7d5bd14f71427d1e84f3dd0314c0f7b2291e5b200ac8c7c3b9258360405161097d9190610fd0565b60405180910390a3505050565b600073ffffffffffffffffffffffffffffffffffffffff168373ffffffffffffffffffffffffffffffffffffffff1614156109fa576040517f08c379a00000000000000000000000000000000000000000000000000000000081526004016109f190610f70565b60405180910390fd5b600073ffffffffffffffffffffffffffffffffffffffff168273ffffffffffffffffffffffffffffffffffffffff161415610a6a576040517f08c379a0000000000000000000000000000000000000000000000000000000008152600401610a6190610ef0565b60405180910390fd5b610a75838383610c0b565b60008060008573ffffffffffffffffffffffffffffffffffffffff1673ffffffffffffffffffffffffffffffffffffffff16815260200190815260200160002054905081811015610afb576040517f08c379a0000000000000000000000000000000000000000000000000000000008152600401610af290610f30565b60405180910390fd5b8181036000808673ffffffffffffffffffffffffffffffffffffffff1673ffffffffffffffffffffffffffffffffffffffff16815260200190815260200160002081905550816000808573ffffffffffffffffffffffffffffffffffffffff1673ffffffffffffffffffffffffffffffffffffffff1681526020019081526020016000206000828254610b8e9190611022565b925050819055508273ffffffffffffffffffffffffffffffffffffffff168473ffffffffffffffffffffffffffffffffffffffff167fddf252ad1be2c89b69c2b068fc378daa952ba7f163c4a11628f55a4df523b3ef84604051610bf29190610fd0565b60405180910390a3610c05848484610c10565b50505050565b505050565b505050565b600081359050610c24816113ca565b92915050565b600081359050610c39816113e1565b92915050565b600060208284031215610c5157600080fd5b6000610c5f84828501610c15565b91505092915050565b60008060408385031215610c7b57600080fd5b6000610c8985828601610c15565b9250506020610c9a85828601610c15565b9150509250929050565b600080600060608486031215610cb957600080fd5b6000610cc786828701610c15565b9350506020610cd886828701610c15565b9250506040610ce986828701610c2a565b9150509250925092565b60008060408385031215610d0657600080fd5b6000610d1485828601610c15565b9250506020610d2585828601610c2a565b9150509250929050565b600060208284031215610d4157600080fd5b6000610d4f84828501610c2a565b91505092915050565b610d618161108a565b82525050565b6000610d7282611006565b610d7c8185611011565b9350610d8c8185602086016110cd565b610d9581611190565b840191505092915050565b6000610dad602383611011565b9150610db8826111a1565b604082019050919050565b6000610dd0602283611011565b9150610ddb826111f0565b604082019050919050565b6000610df3602683611011565b9150610dfe8261123f565b604082019050919050565b6000610e16602883611011565b9150610e218261128e565b604082019050919050565b6000610e39602583611011565b9150610e44826112dd565b604082019050919050565b6000610e5c602483611011565b9150610e678261132c565b604082019050919050565b6000610e7f602583611011565b9150610e8a8261137b565b604082019050919050565b610e9e816110b6565b82525050565b610ead816110c0565b82525050565b6000602082019050610ec86000830184610d58565b92915050565b60006020820190508181036000830152610ee88184610d67565b905092915050565b60006020820190508181036000830152610f0981610da0565b9050919050565b60006020820190508181036000830152610f2981610dc3565b9050919050565b60006020820190508181036000830152610f4981610de6565b9050919050565b60006020820190508181036000830152610f6981610e09565b9050919050565b60006020820190508181036000830152610f8981610e2c565b9050919050565b60006020820190508181036000830152610fa981610e4f565b9050919050565b60006020820190508181036000830152610fc981610e72565b9050919050565b6000602082019050610fe56000830184610e95565b92915050565b60006020820190506110006000830184610ea4565b92915050565b600081519050919050565b600082825260208201905092915050565b600061102d826110b6565b9150611038836110b6565b9250827fffffffffffffffffffffffffffffffffffffffffffffffffffffffffffffffff0382111561106d5761106c611132565b5b828201905092915050565b600061108382611096565b9050919050565b60008115159050919050565b600073ffffffffffffffffffffffffffffffffffffffff82169050919050565b6000819050919050565b600060ff82169050919050565b60005b838110156110eb5780820151818401526020810190506110d0565b838111156110fa576000848401525b50505050565b6000600282049050600182168061111857607f821691505b6020821081141561112c5761112b611161565b5b50919050565b7f4e487b7100000000000000000000000000000000000000000000000000000000600052601160045260246000fd5b7f4e487b7100000000000000000000000000000000000000000000000000000000600052602260045260246000fd5b6000601f19601f8301169050919050565b7f45524332303a207472616e7366657220746f20746865207a65726f206164647260008201527f6573730000000000000000000000000000000000000000000000000000000000602082015250565b7f45524332303a20617070726f766520746f20746865207a65726f20616464726560008201527f7373000000000000000000000000000000000000000000000000000000000000602082015250565b7f45524332303a207472616e7366657220616d6f756e742065786365656473206260008201527f616c616e63650000000000000000000000000000000000000000000000000000602082015250565b7f45524332303a207472616e7366657220616d6f756e742065786365656473206160008201527f6c6c6f77616e6365000000000000000000000000000000000000000000000000602082015250565b7f45524332303a207472616e736665722066726f6d20746865207a65726f20616460008201527f6472657373000000000000000000000000000000000000000000000000000000602082015250565b7f45524332303a20617070726f76652066726f6d20746865207a65726f2061646460008201527f7265737300000000000000000000000000000000000000000000000000000000602082015250565b7f45524332303a2064656372656173656420616c6c6f77616e63652062656c6f7760008201527f207a65726f000000000000000000000000000000000000000000000000000000602082015250565b6113d381611078565b81146113de57600080fd5b50565b6113ea816110b6565b81146113f557600080fd5b5056fea2646970667358221220925ba2edf8f7d185770941b3a34c4ef1bd2b699678051a101eefd4131c7713c864736f6c63430008040033",
  "immutableReferences": {},
  "source": "// SPDX-License-Identifier: MIT\npragma solidity >=0.4.22 <0.9.0;\n\n//OpenZeppelin ERC20 token standard implementation\nimport \"@openzeppelin/contracts/token/ERC20/ERC20.sol\";\n\ncontract dappTest is ERC20 {\n  uint x;\n\n  //When this contract is first deployed, send the deployer of the contract 10,000,000 DATT\n  //Deployer of the contract is Paul D'Antonio, the owner of Life Timer\n  constructor () ERC20(\"dappTestToken\", \"DATT\") {\n    _mint(msg.sender, 10000000);\n  }\n\n  //Set the decimals of the token to 0 i.e. do not allow there to be fractions of tokens\n  //Uses OpenZeppelin\n  function decimals() public view virtual override returns (uint8) {\n      return 0;\n  }\n\n  //get() takes the value of x and returns it\n  function get() public view returns (uint) {\n    return x;\n  }\n  //set() changes the value of x with an input of y\n  function set(uint y) public {\n    x = y;\n  }\n\n\n}\n",
  "sourcePath": "c:\\WAMPP\\www\\LifeTimerDAPP\\contracts\\dappTest.sol",
  "compiler": {
    "name": "solc",
    "version": "0.8.4+commit.c7e474f2.Emscripten.clang"
  },
  "schemaVersion": "3.4.3",
  "updatedAt": "2021-09-18T18:48:24.159Z",
  "networkType": "ethereum",
  "devdoc": {
    "kind": "dev",
    "methods": {
      "allowance(address,address)": {
        "details": "See {IERC20-allowance}."
      },
      "approve(address,uint256)": {
        "details": "See {IERC20-approve}. Requirements: - `spender` cannot be the zero address."
      },
      "balanceOf(address)": {
        "details": "See {IERC20-balanceOf}."
      },
      "decimals()": {
        "details": "Returns the number of decimals used to get its user representation. For example, if `decimals` equals `2`, a balance of `505` tokens should be displayed to a user as `5.05` (`505 / 10 ** 2`). Tokens usually opt for a value of 18, imitating the relationship between Ether and Wei. This is the value {ERC20} uses, unless this function is overridden; NOTE: This information is only used for _display_ purposes: it in no way affects any of the arithmetic of the contract, including {IERC20-balanceOf} and {IERC20-transfer}."
      },
      "decreaseAllowance(address,uint256)": {
        "details": "Atomically decreases the allowance granted to `spender` by the caller. This is an alternative to {approve} that can be used as a mitigation for problems described in {IERC20-approve}. Emits an {Approval} event indicating the updated allowance. Requirements: - `spender` cannot be the zero address. - `spender` must have allowance for the caller of at least `subtractedValue`."
      },
      "increaseAllowance(address,uint256)": {
        "details": "Atomically increases the allowance granted to `spender` by the caller. This is an alternative to {approve} that can be used as a mitigation for problems described in {IERC20-approve}. Emits an {Approval} event indicating the updated allowance. Requirements: - `spender` cannot be the zero address."
      },
      "name()": {
        "details": "Returns the name of the token."
      },
      "symbol()": {
        "details": "Returns the symbol of the token, usually a shorter version of the name."
      },
      "totalSupply()": {
        "details": "See {IERC20-totalSupply}."
      },
      "transfer(address,uint256)": {
        "details": "See {IERC20-transfer}. Requirements: - `recipient` cannot be the zero address. - the caller must have a balance of at least `amount`."
      },
      "transferFrom(address,address,uint256)": {
        "details": "See {IERC20-transferFrom}. Emits an {Approval} event indicating the updated allowance. This is not required by the EIP. See the note at the beginning of {ERC20}. Requirements: - `sender` and `recipient` cannot be the zero address. - `sender` must have a balance of at least `amount`. - the caller must have allowance for ``sender``'s tokens of at least `amount`."
      }
    },
    "version": 1
  },
  "userdoc": {
    "kind": "user",
    "methods": {},
    "version": 1
  }
}